{
  "_format": "hh-sol-artifact-1",
  "contractName": "FoodTraceabilityMarketplace",
  "sourceName": "contracts/FoodTraceabilityMarketplace.sol",
  "abi": [
    {
      "inputs": [
        {
          "internalType": "address",
          "name": "_nft",
          "type": "address"
        }
      ],
      "stateMutability": "nonpayable",
      "type": "constructor"
    },
    {
      "inputs": [],
      "name": "NFT_alreadyListed",
      "type": "error"
    },
    {
      "inputs": [],
      "name": "NftIsNotApproved",
      "type": "error"
    },
    {
      "inputs": [],
      "name": "PleaseSendCorreactPrice",
      "type": "error"
    },
    {
      "inputs": [],
      "name": "TransferFailed",
      "type": "error"
    },
    {
      "anonymous": false,
      "inputs": [
        {
          "indexed": true,
          "internalType": "address",
          "name": "buyer",
          "type": "address"
        },
        {
          "indexed": true,
          "internalType": "address",
          "name": "nftAddress",
          "type": "address"
        },
        {
          "indexed": true,
          "internalType": "uint256",
          "name": "tokenId",
          "type": "uint256"
        },
        {
          "indexed": false,
          "internalType": "uint256",
          "name": "price",
          "type": "uint256"
        }
      ],
      "name": "ItemBought",
      "type": "event"
    },
    {
      "anonymous": false,
      "inputs": [
        {
          "indexed": true,
          "internalType": "address",
          "name": "seller",
          "type": "address"
        },
        {
          "indexed": true,
          "internalType": "address",
          "name": "nftAddress",
          "type": "address"
        },
        {
          "indexed": true,
          "internalType": "uint256",
          "name": "tokenId",
          "type": "uint256"
        }
      ],
      "name": "ItemCanceled",
      "type": "event"
    },
    {
      "anonymous": false,
      "inputs": [
        {
          "indexed": true,
          "internalType": "address",
          "name": "seller",
          "type": "address"
        },
        {
          "indexed": true,
          "internalType": "address",
          "name": "nftAddress",
          "type": "address"
        },
        {
          "indexed": true,
          "internalType": "uint256",
          "name": "tokenId",
          "type": "uint256"
        },
        {
          "indexed": false,
          "internalType": "uint256",
          "name": "price",
          "type": "uint256"
        }
      ],
      "name": "ItemListed",
      "type": "event"
    },
    {
      "inputs": [],
      "name": "ListdItems",
      "outputs": [
        {
          "internalType": "uint256",
          "name": "",
          "type": "uint256"
        }
      ],
      "stateMutability": "view",
      "type": "function"
    },
    {
      "inputs": [],
      "name": "NFTContract",
      "outputs": [
        {
          "internalType": "contract IERC721",
          "name": "",
          "type": "address"
        }
      ],
      "stateMutability": "view",
      "type": "function"
    },
    {
      "inputs": [
        {
          "internalType": "uint256",
          "name": "_itemId",
          "type": "uint256"
        }
      ],
      "name": "_checkItemsStatus",
      "outputs": [
        {
          "internalType": "bool",
          "name": "",
          "type": "bool"
        }
      ],
      "stateMutability": "view",
      "type": "function"
    },
    {
      "inputs": [
        {
          "internalType": "uint256",
          "name": "_itemId",
          "type": "uint256"
        }
      ],
      "name": "bid",
      "outputs": [],
      "stateMutability": "payable",
      "type": "function"
    },
    {
      "inputs": [
        {
          "internalType": "uint256",
          "name": "_itemId",
          "type": "uint256"
        }
      ],
      "name": "buyItem",
      "outputs": [],
      "stateMutability": "payable",
      "type": "function"
    },
    {
      "inputs": [
        {
          "internalType": "uint256",
          "name": "_itemId",
          "type": "uint256"
        }
      ],
      "name": "cancellItems",
      "outputs": [],
      "stateMutability": "nonpayable",
      "type": "function"
    },
    {
      "inputs": [
        {
          "internalType": "uint256",
          "name": "_itemId",
          "type": "uint256"
        }
      ],
      "name": "concludeItems",
      "outputs": [],
      "stateMutability": "nonpayable",
      "type": "function"
    },
    {
      "inputs": [
        {
          "internalType": "uint256",
          "name": "_tokenId",
          "type": "uint256"
        },
        {
          "internalType": "uint256",
          "name": "_basePrice",
          "type": "uint256"
        },
        {
          "internalType": "uint256",
          "name": "_endTime",
          "type": "uint256"
        }
      ],
      "name": "createItems",
      "outputs": [],
      "stateMutability": "nonpayable",
      "type": "function"
    },
    {
      "inputs": [
        {
          "internalType": "uint256",
          "name": "nftId",
          "type": "uint256"
        }
      ],
      "name": "getBuyHistory",
      "outputs": [
        {
          "components": [
            {
              "internalType": "address",
              "name": "buyer",
              "type": "address"
            },
            {
              "internalType": "uint256",
              "name": "price",
              "type": "uint256"
            },
            {
              "internalType": "uint256",
              "name": "timestamp",
              "type": "uint256"
            }
          ],
          "internalType": "struct FoodTraceabilityMarketplace.BuyHistory[]",
          "name": "",
          "type": "tuple[]"
        }
      ],
      "stateMutability": "view",
      "type": "function"
    },
    {
      "inputs": [
        {
          "internalType": "address",
          "name": "_address",
          "type": "address"
        }
      ],
      "name": "isUser",
      "outputs": [
        {
          "internalType": "bool",
          "name": "",
          "type": "bool"
        }
      ],
      "stateMutability": "view",
      "type": "function"
    },
    {
      "inputs": [
        {
          "internalType": "uint256",
          "name": "",
          "type": "uint256"
        }
      ],
      "name": "listedItemDetails",
      "outputs": [
        {
          "internalType": "address",
          "name": "farmer",
          "type": "address"
        },
        {
          "internalType": "address payable",
          "name": "seller",
          "type": "address"
        },
        {
          "internalType": "address",
          "name": "nftContract",
          "type": "address"
        },
        {
          "internalType": "uint256",
          "name": "tokenId",
          "type": "uint256"
        },
        {
          "internalType": "uint256",
          "name": "basePrice",
          "type": "uint256"
        },
        {
          "internalType": "address",
          "name": "highestBidder",
          "type": "address"
        },
        {
          "internalType": "uint256",
          "name": "highestBid",
          "type": "uint256"
        },
        {
          "internalType": "uint256",
          "name": "endTime",
          "type": "uint256"
        },
        {
          "internalType": "uint256",
          "name": "starTime",
          "type": "uint256"
        },
        {
          "internalType": "uint256",
          "name": "mintTime",
          "type": "uint256"
        },
        {
          "internalType": "string",
          "name": "sallerRole",
          "type": "string"
        },
        {
          "internalType": "bool",
          "name": "isAuction",
          "type": "bool"
        },
        {
          "internalType": "bool",
          "name": "isListedOnSale",
          "type": "bool"
        }
      ],
      "stateMutability": "view",
      "type": "function"
    },
    {
      "inputs": [
        {
          "internalType": "uint256",
          "name": "",
          "type": "uint256"
        },
        {
          "internalType": "uint256",
          "name": "",
          "type": "uint256"
        }
      ],
      "name": "nftBuyHistory",
      "outputs": [
        {
          "internalType": "address",
          "name": "buyer",
          "type": "address"
        },
        {
          "internalType": "uint256",
          "name": "price",
          "type": "uint256"
        },
        {
          "internalType": "uint256",
          "name": "timestamp",
          "type": "uint256"
        }
      ],
      "stateMutability": "view",
      "type": "function"
    },
    {
      "inputs": [
        {
          "internalType": "string",
          "name": "_name",
          "type": "string"
        },
        {
          "internalType": "string",
          "name": "_email",
          "type": "string"
        },
        {
          "internalType": "uint256",
          "name": "_phone_number",
          "type": "uint256"
        },
        {
          "internalType": "string",
          "name": "_role",
          "type": "string"
        }
      ],
      "name": "registerAsUser",
      "outputs": [],
      "stateMutability": "nonpayable",
      "type": "function"
    },
    {
      "inputs": [
        {
          "internalType": "address",
          "name": "",
          "type": "address"
        }
      ],
      "name": "registerationAccount",
      "outputs": [
        {
          "internalType": "string",
          "name": "name",
          "type": "string"
        },
        {
          "internalType": "string",
          "name": "email",
          "type": "string"
        },
        {
          "internalType": "uint256",
          "name": "phone_number",
          "type": "uint256"
        },
        {
          "internalType": "string",
          "name": "role",
          "type": "string"
        },
        {
          "internalType": "bool",
          "name": "isRegister",
          "type": "bool"
        }
      ],
      "stateMutability": "view",
      "type": "function"
    },
    {
      "inputs": [
        {
          "internalType": "uint256",
          "name": "_itemId",
          "type": "uint256"
        },
        {
          "internalType": "uint256",
          "name": "_price",
          "type": "uint256"
        },
        {
          "internalType": "uint256",
          "name": "_endTime",
          "type": "uint256"
        },
        {
          "internalType": "bool",
          "name": "_isAuction",
          "type": "bool"
        }
      ],
      "name": "sellItem",
      "outputs": [],
      "stateMutability": "nonpayable",
      "type": "function"
    },
    {
      "inputs": [],
      "name": "totalItemsSale",
      "outputs": [
        {
          "internalType": "uint256",
          "name": "",
          "type": "uint256"
        }
      ],
      "stateMutability": "view",
      "type": "function"
    }
  ],
  "bytecode": "0x60806040523480156200001157600080fd5b506040516200269f3803806200269f83398101604081905262000034916200005f565b6001600055600680546001600160a01b0319166001600160a01b039290921691909117905562000091565b6000602082840312156200007257600080fd5b81516001600160a01b03811681146200008a57600080fd5b9392505050565b6125fe80620000a16000396000f3fe6080604052600436106100f35760003560e01c80637f8203751161008a578063a4cfca0511610059578063a4cfca05146102f4578063b614aeff14610314578063e7fb74c714610334578063f63ca7ba1461034757600080fd5b80637f8203751461023e5780638ac5c6121461025e57806396c68588146102a35780639753b644146102c357600080fd5b806344ac0c41116100c657806344ac0c41146101c8578063454a2ab3146101de578063457e7d44146101f157806358a646931461021157600080fd5b806309b4480e146100f85780630c9aff251461012157806331c2273b146101435780634209fff11461017b575b600080fd5b34801561010457600080fd5b5061010e60025481565b6040519081526020015b60405180910390f35b34801561012d57600080fd5b5061014161013c366004611fa6565b610380565b005b34801561014f57600080fd5b50600654610163906001600160a01b031681565b6040516001600160a01b039091168152602001610118565b34801561018757600080fd5b506101b8610196366004611fe7565b6001600160a01b03166000908152600460208190526040909120015460ff1690565b6040519015158152602001610118565b3480156101d457600080fd5b5061010e60015481565b6101416101ec36600461200b565b6106e3565b3480156101fd57600080fd5b506101b861020c36600461200b565b610a23565b34801561021d57600080fd5b5061023161022c36600461200b565b610bf4565b6040516101189190612024565b34801561024a57600080fd5b5061014161025936600461200b565b610c89565b34801561026a57600080fd5b5061027e610279366004612086565b610fff565b604080516001600160a01b039094168452602084019290925290820152606001610118565b3480156102af57600080fd5b506101416102be36600461200b565b61104b565b3480156102cf57600080fd5b506102e36102de366004611fe7565b611701565b6040516101189594939291906120ee565b34801561030057600080fd5b5061014161030f3660046121e5565b6118ca565b34801561032057600080fd5b5061014161032f366004612277565b6119ca565b61014161034236600461200b565b611bca565b34801561035357600080fd5b5061036761036236600461200b565b611e45565b6040516101189d9c9b9a999897969594939291906122bd565b336000908152600460208190526040909120015460ff166103e85760405162461bcd60e51b815260206004820152601e60248201527f596f75206861766520746f20726567697374657220796f75722073656c66000060448201526064015b60405180910390fd5b60065460405163020604bf60e21b81526004810185905230916001600160a01b03169063081812fc90602401602060405180830381865afa158015610431573d6000803e3d6000fd5b505050506040513d601f19601f82011682018060405250810190610455919061235e565b6001600160a01b03161461047c57604051630a3492e360e31b815260040160405180910390fd5b6001805490600061048c8361237b565b9091555050604080516101a0810182523380825260208083018290526006546001600160a01b0316838501526060830187905260808301869052600060a0840181905260c0840181905260e08401869052426101008501819052610120850152918252600490529190912060030180546101408301919061050c906123a2565b80601f0160208091040260200160405190810160405280929190818152602001828054610538906123a2565b80156105855780601f1061055a57610100808354040283529160200191610585565b820191906000526020600020905b81548152906001019060200180831161056857829003601f168201915b505050918352505060016020808301829052604092830182905281546000908152600380835290849020855181546001600160a01b039182166001600160a01b031991821617835593870151948201805495821695851695909517909455938501516002850180549185169184169190911790556060850151908401556080840151600484015560a084015160058401805491909316911617905560c0820151600682015560e0820151600782015561010082015160088201556101208201516009820155610140820151600a82019061065f908261242d565b50610160820151600b90910180546101809093015115156101000261ff00199215159290921661ffff199093169290921717905560065460405184916001600160a01b03169033907fd547e933094f12a9159076970143ebe73234e64480317844b0dcb36117116de4906106d69087815260200190565b60405180910390a4505050565b6106eb611f4d565b336000908152600460208190526040909120015460ff1661074e5760405162461bcd60e51b815260206004820152601e60248201527f596f75206861766520746f20726567697374657220796f75722073656c66000060448201526064016103df565b6000818152600360205260409020600b81015460ff166107b05760405162461bcd60e51b815260206004820152601f60248201527f54686973206974656d206e6f74206c6973746564206f6e2061756374696f6e0060448201526064016103df565b806007015442106108035760405162461bcd60e51b815260206004820152600e60248201527f4974656d2068617320656e64656400000000000000000000000000000000000060448201526064016103df565b60018101546001600160a01b031661085d5760405162461bcd60e51b815260206004820152601360248201527f4974656d20646f6573206e6f742065786973740000000000000000000000000060448201526064016103df565b348160060154108015610874575034816004015411155b6108e65760405162461bcd60e51b815260206004820152603e60248201527f426964206d75737420626520686967686572207468616e20746865206375727260448201527f656e7420686967686573742062696420616e642062617365207072696365000060648201526084016103df565b60018101546001600160a01b031633036109425760405162461bcd60e51b815260206004820181905260248201527f596f752063616e6e6f742062696420696e20796f7572206f776e204974656d7360448201526064016103df565b60058101546001600160a01b031680156109fc5760068201546040516000916001600160a01b038416918381818185875af1925050503d80600081146109a4576040519150601f19603f3d011682016040523d82523d6000602084013e6109a9565b606091505b50509050806109fa5760405162461bcd60e51b815260206004820181905260248201527f4661696c656420746f20726566756e642070726576696f75732062696464657260448201526064016103df565b505b5034600682015560050180546001600160a01b03191633179055610a206001600055565b50565b600081815260036020818152604080842081516101a08101835281546001600160a01b0390811682526001830154811694820194909452600282015484169281019290925292830154606082015260048301546080820152600583015490911660a0820152600682015460c0820152600782015460e082015260088201546101008201526009820154610120820152600a82018054849391610140840191610aca906123a2565b80601f0160208091040260200160405190810160405280929190818152602001828054610af6906123a2565b8015610b435780601f10610b1857610100808354040283529160200191610b43565b820191906000526020600020905b815481529060010190602001808311610b2657829003601f168201915b5050509183525050600b919091015460ff80821615156020840152610100909104161515604090910152610180810151909150610be85760405162461bcd60e51b815260206004820152602560248201527f4974656d7320666f722074686973204e4654206973206e6f7420696e2070726f60448201527f677265737300000000000000000000000000000000000000000000000000000060648201526084016103df565b60e00151421192915050565b606060056000838152602001908152602001600020805480602002602001604051908101604052809291908181526020016000905b82821015610c7e576000848152602090819020604080516060810182526003860290920180546001600160a01b0316835260018082015484860152600290910154918301919091529083529092019101610c29565b505050509050919050565b336000908152600460208190526040909120015460ff16610cec5760405162461bcd60e51b815260206004820152601e60248201527f596f75206861766520746f20726567697374657220796f75722073656c66000060448201526064016103df565b600081815260036020818152604080842081516101a08101835281546001600160a01b0390811682526001830154811694820194909452600282015484169281019290925292830154606082015260048301546080820152600583015490911660a0820152600682015460c0820152600782015460e082015260088201546101008201526009820154610120820152600a8201805491929161014084019190610d94906123a2565b80601f0160208091040260200160405190810160405280929190818152602001828054610dc0906123a2565b8015610e0d5780601f10610de257610100808354040283529160200191610e0d565b820191906000526020600020905b815481529060010190602001808311610df057829003601f168201915b5050509183525050600b919091015460ff80821615156020808501919091526101009092041615156040909201919091528101519091506001600160a01b03163314610e9b5760405162461bcd60e51b815260206004820152601d60248201527f596f7520617265206e6f74204f776e6572206f662074686973204e465400000060448201526064016103df565b428160e0015110610eee5760405162461bcd60e51b815260206004820152601460248201527f4974656d732054696d652072656d61696e696e6700000000000000000000000060448201526064016103df565b60006101808201819052610160820181905282815260036020818152604092839020845181546001600160a01b039182166001600160a01b031991821617835592860151600183018054918316918516919091179055938501516002820180549186169184169190911790556060850151928101929092556080840151600483015560a08401516005830180549190941691161790915560c0820151600682015560e0820151600782015561010082015160088201556101208201516009820155610140820151829190600a820190610fc7908261242d565b50610160820151600b90910180546101809093015115156101000261ff00199215159290921661ffff19909316929092171790555050565b6005602052816000526040600020818154811061101b57600080fd5b60009182526020909120600390910201805460018201546002909201546001600160a01b03909116935090915083565b336000908152600460208190526040909120015460ff166110ae5760405162461bcd60e51b815260206004820152601e60248201527f596f75206861766520746f20726567697374657220796f75722073656c66000060448201526064016103df565b600081815260036020818152604080842081516101a08101835281546001600160a01b0390811682526001830154811694820194909452600282015484169281019290925292830154606082015260048301546080820152600583015490911660a0820152600682015460c0820152600782015460e082015260088201546101008201526009820154610120820152600a8201805491929161014084019190611156906123a2565b80601f0160208091040260200160405190810160405280929190818152602001828054611182906123a2565b80156111cf5780601f106111a4576101008083540402835291602001916111cf565b820191906000526020600020905b8154815290600101906020018083116111b257829003601f168201915b5050509183525050600b919091015460ff8082161515602084015261010090910416151560409091015260a08101519091506001600160a01b031633148061122c575080602001516001600160a01b0316336001600160a01b0316145b61129e5760405162461bcd60e51b815260206004820152602c60248201527f596f7520617265206e6f7420617574686f72697a656420746f20636f6e636c7560448201527f646520746865204974656d73000000000000000000000000000000000000000060648201526084016103df565b428160e00151106112f15760405162461bcd60e51b815260206004820152601460248201527f4974656d732054696d652072656d61696e696e6700000000000000000000000060448201526064016103df565b600654602082015160608301516040517f23b872dd0000000000000000000000000000000000000000000000000000000081526001600160a01b03928316600482015233602482015260448101919091529116906323b872dd90606401600060405180830381600087803b15801561136857600080fd5b505af115801561137c573d6000803e3d6000fd5b5050505060208101516001600160a01b0381161561143a5760c08201516040516000916001600160a01b038416918381818185875af1925050503d80600081146113e2576040519150601f19603f3d011682016040523d82523d6000602084013e6113e7565b606091505b50509050806114385760405162461bcd60e51b815260206004820181905260248201527f4661696c656420746f20726566756e642070726576696f75732062696464657260448201526064016103df565b505b60c082015160a08301516001600160a01b031660009081526004602052604090206003018054611469906123a2565b80601f0160208091040260200160405190810160405280929190818152602001828054611495906123a2565b80156114e25780601f106114b7576101008083540402835291602001916114e2565b820191906000526020600020905b8154815290600101906020018083116114c557829003601f168201915b505050505061014084015260a0830180516001600160a01b031660208501526000608085018190529081905260c0840181905260e0840181905261010084018190526101608401819052610180840181905260028054916115428361237b565b9091555050600084815260036020818152604092839020865181546001600160a01b039182166001600160a01b031991821617835592880151600183018054918316918516919091179055938701516002820180549186169184169190911790556060870151928101929092556080860151600483015560a08601516005830180549190941691161790915560c0840151600682015560e0840151600782015561010084015160088201556101208401516009820155610140840151849190600a820190611610908261242d565b50610160820151600b9190910180546101809093015115156101000261ff00199215159290921661ffff1990931692909217179055606083810180516000908152600560209081526040808320815195860182523380875286840188815242888501908152835460018181018655948852968690209851600390970290980180546001600160a01b039788166001600160a01b03199091161781559051928101929092559551600290910155925160065460c0890151945194855290949216927f263223b1dd81e51054a4e6f791d45a4a1ddb4aadcd93a2dfd892615c3fdac187910160405180910390a450505050565b60046020526000908152604090208054819061171c906123a2565b80601f0160208091040260200160405190810160405280929190818152602001828054611748906123a2565b80156117955780601f1061176a57610100808354040283529160200191611795565b820191906000526020600020905b81548152906001019060200180831161177857829003601f168201915b5050505050908060010180546117aa906123a2565b80601f01602080910402602001604051908101604052809291908181526020018280546117d6906123a2565b80156118235780601f106117f857610100808354040283529160200191611823565b820191906000526020600020905b81548152906001019060200180831161180657829003601f168201915b50505050509080600201549080600301805461183e906123a2565b80601f016020809104026020016040519081016040528092919081815260200182805461186a906123a2565b80156118b75780601f1061188c576101008083540402835291602001916118b7565b820191906000526020600020905b81548152906001019060200180831161189a57829003601f168201915b5050506004909301549192505060ff1685565b336000908152600460208190526040909120015460ff161561192e5760405162461bcd60e51b815260206004820152601a60248201527f596f752061726520616c7265616479207265676973746572656400000000000060448201526064016103df565b6040805160a0810182528581526020808201869052818301859052606082018490526001608083015233600090815260049091529190912081518190611974908261242d565b5060208201516001820190611989908261242d565b5060408201516002820155606082015160038201906119a8908261242d565b50608091909101516004909101805460ff191691151591909117905550505050565b336000908152600460208190526040909120015460ff16611a2d5760405162461bcd60e51b815260206004820152601e60248201527f596f75206861766520746f20726567697374657220796f75722073656c66000060448201526064016103df565b6000848152600360205260409020600b810154610100900460ff161515600103611a83576040517f90c2044b00000000000000000000000000000000000000000000000000000000815260040160405180910390fd5b600654600382015460405163020604bf60e21b8152600481019190915230916001600160a01b03169063081812fc90602401602060405180830381865afa158015611ad2573d6000803e3d6000fd5b505050506040513d601f19601f82011682018060405250810190611af6919061235e565b6001600160a01b031614611b1d57604051630a3492e360e31b815260040160405180910390fd5b8115611b415760078101839055426008820155600b8101805460ff19168315151790555b6001810180546001600160a01b0319163390811790915560048201859055600b8201805461ff0019166101001790556003820154600283015460405191926001600160a01b0391909116917fd547e933094f12a9159076970143ebe73234e64480317844b0dcb36117116de490611bbb9089815260200190565b60405180910390a45050505050565b60008181526003602052604090206004810154341015611c16576040517fa58aac5400000000000000000000000000000000000000000000000000000000815260040160405180910390fd5b60018101546040516000916001600160a01b03169034908381818185875af1925050503d8060008114611c65576040519150601f19603f3d011682016040523d82523d6000602084013e611c6a565b606091505b5050905080611ca5576040517f90b8ec1800000000000000000000000000000000000000000000000000000000815260040160405180910390fd5b600654600183015460038401546040517f42842e0e0000000000000000000000000000000000000000000000000000000081526001600160a01b03928316600482015233602482015260448101919091529116906342842e0e90606401600060405180830381600087803b158015611d1c57600080fd5b505af1158015611d30573d6000803e3d6000fd5b5050336000908152600460205260409020600a85019250611d559150600301826124ed565b5060018281018054336001600160a01b031991821681179092556000600486018181556005808801805485169055600688018390556007880183905560088801839055600b8801805461ffff1916905560038089018054855260209283526040808620815160608101835289815234818701908152428285019081528354808e018555938a52988790209151929095020180549098166001600160a01b039182161788559251988701989098559351600295860155925493880154915495519586529294911692917f263223b1dd81e51054a4e6f791d45a4a1ddb4aadcd93a2dfd892615c3fdac18791016106d6565b600360208190526000918252604090912080546001820154600283015493830154600484015460058501546006860154600787015460088801546009890154600a8a0180546001600160a01b039a8b169c998b169b998b169a9899979890961696949593949293919291611eb8906123a2565b80601f0160208091040260200160405190810160405280929190818152602001828054611ee4906123a2565b8015611f315780601f10611f0657610100808354040283529160200191611f31565b820191906000526020600020905b815481529060010190602001808311611f1457829003601f168201915b505050600b909301549192505060ff808216916101009004168d565b600260005403611f9f5760405162461bcd60e51b815260206004820152601f60248201527f5265656e7472616e637947756172643a207265656e7472616e742063616c6c0060448201526064016103df565b6002600055565b600080600060608486031215611fbb57600080fd5b505081359360208301359350604090920135919050565b6001600160a01b0381168114610a2057600080fd5b600060208284031215611ff957600080fd5b813561200481611fd2565b9392505050565b60006020828403121561201d57600080fd5b5035919050565b602080825282518282018190526000919060409081850190868401855b8281101561207957815180516001600160a01b0316855286810151878601528501518585015260609093019290850190600101612041565b5091979650505050505050565b6000806040838503121561209957600080fd5b50508035926020909101359150565b6000815180845260005b818110156120ce576020818501810151868301820152016120b2565b506000602082860101526020601f19601f83011685010191505092915050565b60a08152600061210160a08301886120a8565b828103602084015261211381886120a8565b9050856040840152828103606084015261212d81866120a8565b91505082151560808301529695505050505050565b634e487b7160e01b600052604160045260246000fd5b600082601f83011261216957600080fd5b813567ffffffffffffffff8082111561218457612184612142565b604051601f8301601f19908116603f011681019082821181831017156121ac576121ac612142565b816040528381528660208588010111156121c557600080fd5b836020870160208301376000602085830101528094505050505092915050565b600080600080608085870312156121fb57600080fd5b843567ffffffffffffffff8082111561221357600080fd5b61221f88838901612158565b9550602087013591508082111561223557600080fd5b61224188838901612158565b945060408701359350606087013591508082111561225e57600080fd5b5061226b87828801612158565b91505092959194509250565b6000806000806080858703121561228d57600080fd5b843593506020850135925060408501359150606085013580151581146122b257600080fd5b939692955090935050565b6001600160a01b038e1681526001600160a01b038d1660208201526001600160a01b038c1660408201528a606082015289608082015261230860a082018a6001600160a01b03169052565b8760c08201528660e082015285610100820152846101208201526101a0610140820152600061233b6101a08301866120a8565b93151561016083015250901515610180909101529b9a5050505050505050505050565b60006020828403121561237057600080fd5b815161200481611fd2565b60006001820161239b57634e487b7160e01b600052601160045260246000fd5b5060010190565b600181811c908216806123b657607f821691505b6020821081036123d657634e487b7160e01b600052602260045260246000fd5b50919050565b601f821115612428576000816000526020600020601f850160051c810160208610156124055750805b601f850160051c820191505b8181101561242457828155600101612411565b5050505b505050565b815167ffffffffffffffff81111561244757612447612142565b61245b8161245584546123a2565b846123dc565b602080601f83116001811461249057600084156124785750858301515b600019600386901b1c1916600185901b178555612424565b600085815260208120601f198616915b828110156124bf578886015182559484019460019091019084016124a0565b50858210156124dd5787850151600019600388901b60f8161c191681555b5050505050600190811b01905550565b8181036124f8575050565b61250282546123a2565b67ffffffffffffffff81111561251a5761251a612142565b6125288161245584546123a2565b6000601f82116001811461255c57600083156125445750848201545b600019600385901b1c1916600184901b1784556125c1565b600085815260209020601f19841690600086815260209020845b838110156125965782860154825560019586019590910190602001612576565b50858310156125b45781850154600019600388901b60f8161c191681555b50505060018360011b0184555b505050505056fea2646970667358221220707d153285abacea988aad88160fbabf65448054fbc7f8831eb2b20feaeb00b864736f6c63430008160033",
  "linkReferences": {},
  "deployedLinkReferences": {}
}